{
  "_format": "hh-sol-artifact-1",
  "contractName": "RCTokenV2",
  "sourceName": "contracts/RCTokenERC20.sol",
  "abi": [
    {
      "inputs": [],
      "stateMutability": "nonpayable",
      "type": "constructor"
    },
    {
      "anonymous": false,
      "inputs": [
        {
          "indexed": true,
          "internalType": "address",
          "name": "owner",
          "type": "address"
        },
        {
          "indexed": true,
          "internalType": "address",
          "name": "spender",
          "type": "address"
        },
        {
          "indexed": false,
          "internalType": "uint256",
          "name": "value",
          "type": "uint256"
        }
      ],
      "name": "Approval",
      "type": "event"
    },
    {
      "anonymous": false,
      "inputs": [
        {
          "indexed": false,
          "internalType": "address",
          "name": "from",
          "type": "address"
        },
        {
          "indexed": false,
          "internalType": "address",
          "name": "to",
          "type": "address"
        },
        {
          "indexed": false,
          "internalType": "uint256",
          "name": "amount",
          "type": "uint256"
        }
      ],
      "name": "Sent",
      "type": "event"
    },
    {
      "anonymous": false,
      "inputs": [
        {
          "indexed": true,
          "internalType": "address",
          "name": "from",
          "type": "address"
        },
        {
          "indexed": true,
          "internalType": "address",
          "name": "to",
          "type": "address"
        },
        {
          "indexed": false,
          "internalType": "uint256",
          "name": "value",
          "type": "uint256"
        }
      ],
      "name": "Transfer",
      "type": "event"
    },
    {
      "inputs": [
        {
          "internalType": "address",
          "name": "owner",
          "type": "address"
        },
        {
          "internalType": "address",
          "name": "spender",
          "type": "address"
        }
      ],
      "name": "allowance",
      "outputs": [
        {
          "internalType": "uint256",
          "name": "",
          "type": "uint256"
        }
      ],
      "stateMutability": "view",
      "type": "function"
    },
    {
      "inputs": [
        {
          "internalType": "address",
          "name": "spender",
          "type": "address"
        },
        {
          "internalType": "uint256",
          "name": "amount",
          "type": "uint256"
        }
      ],
      "name": "approve",
      "outputs": [
        {
          "internalType": "bool",
          "name": "",
          "type": "bool"
        }
      ],
      "stateMutability": "nonpayable",
      "type": "function"
    },
    {
      "inputs": [
        {
          "internalType": "address",
          "name": "account",
          "type": "address"
        }
      ],
      "name": "balanceOf",
      "outputs": [
        {
          "internalType": "uint256",
          "name": "",
          "type": "uint256"
        }
      ],
      "stateMutability": "view",
      "type": "function"
    },
    {
      "inputs": [
        {
          "internalType": "address",
          "name": "",
          "type": "address"
        }
      ],
      "name": "balances",
      "outputs": [
        {
          "internalType": "uint256",
          "name": "",
          "type": "uint256"
        }
      ],
      "stateMutability": "view",
      "type": "function"
    },
    {
      "inputs": [],
      "name": "decimals",
      "outputs": [
        {
          "internalType": "uint8",
          "name": "",
          "type": "uint8"
        }
      ],
      "stateMutability": "view",
      "type": "function"
    },
    {
      "inputs": [
        {
          "internalType": "address",
          "name": "spender",
          "type": "address"
        },
        {
          "internalType": "uint256",
          "name": "subtractedValue",
          "type": "uint256"
        }
      ],
      "name": "decreaseAllowance",
      "outputs": [
        {
          "internalType": "bool",
          "name": "",
          "type": "bool"
        }
      ],
      "stateMutability": "nonpayable",
      "type": "function"
    },
    {
      "inputs": [
        {
          "internalType": "address",
          "name": "spender",
          "type": "address"
        },
        {
          "internalType": "uint256",
          "name": "addedValue",
          "type": "uint256"
        }
      ],
      "name": "increaseAllowance",
      "outputs": [
        {
          "internalType": "bool",
          "name": "",
          "type": "bool"
        }
      ],
      "stateMutability": "nonpayable",
      "type": "function"
    },
    {
      "inputs": [
        {
          "internalType": "address",
          "name": "receiver",
          "type": "address"
        },
        {
          "internalType": "uint256",
          "name": "amount",
          "type": "uint256"
        }
      ],
      "name": "mint",
      "outputs": [],
      "stateMutability": "nonpayable",
      "type": "function"
    },
    {
      "inputs": [],
      "name": "minter",
      "outputs": [
        {
          "internalType": "address",
          "name": "",
          "type": "address"
        }
      ],
      "stateMutability": "view",
      "type": "function"
    },
    {
      "inputs": [],
      "name": "name",
      "outputs": [
        {
          "internalType": "string",
          "name": "",
          "type": "string"
        }
      ],
      "stateMutability": "view",
      "type": "function"
    },
    {
      "inputs": [],
      "name": "symbol",
      "outputs": [
        {
          "internalType": "string",
          "name": "",
          "type": "string"
        }
      ],
      "stateMutability": "view",
      "type": "function"
    },
    {
      "inputs": [],
      "name": "totalSupply",
      "outputs": [
        {
          "internalType": "uint256",
          "name": "",
          "type": "uint256"
        }
      ],
      "stateMutability": "view",
      "type": "function"
    },
    {
      "inputs": [
        {
          "internalType": "address",
          "name": "to",
          "type": "address"
        },
        {
          "internalType": "uint256",
          "name": "amount",
          "type": "uint256"
        }
      ],
      "name": "transfer",
      "outputs": [
        {
          "internalType": "bool",
          "name": "",
          "type": "bool"
        }
      ],
      "stateMutability": "nonpayable",
      "type": "function"
    },
    {
      "inputs": [
        {
          "internalType": "address",
          "name": "from",
          "type": "address"
        },
        {
          "internalType": "address",
          "name": "to",
          "type": "address"
        },
        {
          "internalType": "uint256",
          "name": "amount",
          "type": "uint256"
        }
      ],
      "name": "transferFrom",
      "outputs": [
        {
          "internalType": "bool",
          "name": "",
          "type": "bool"
        }
      ],
      "stateMutability": "nonpayable",
      "type": "function"
    }
  ],
  "bytecode": "0x60806040523480156200001157600080fd5b506040518060400160405280601081526020017f5265616c43686f75626579546f6b656e000000000000000000000000000000008152506040518060400160405280600381526020017f524354000000000000000000000000000000000000000000000000000000000081525081600390805190602001906200009692919062000282565b508060049080519060200190620000af92919062000282565b505050620000f033620000c7620000f660201b60201c565b600a620000d59190620004cc565b612710620000e491906200051d565b620000ff60201b60201c565b620006f1565b60006012905090565b600073ffffffffffffffffffffffffffffffffffffffff168273ffffffffffffffffffffffffffffffffffffffff16141562000172576040517f08c379a00000000000000000000000000000000000000000000000000000000081526004016200016990620005df565b60405180910390fd5b62000186600083836200027860201b60201c565b80600260008282546200019a919062000601565b92505081905550806000808473ffffffffffffffffffffffffffffffffffffffff1673ffffffffffffffffffffffffffffffffffffffff1681526020019081526020016000206000828254620001f1919062000601565b925050819055508173ffffffffffffffffffffffffffffffffffffffff16600073ffffffffffffffffffffffffffffffffffffffff167fddf252ad1be2c89b69c2b068fc378daa952ba7f163c4a11628f55a4df523b3ef836040516200025891906200066f565b60405180910390a362000274600083836200027d60201b60201c565b5050565b505050565b505050565b8280546200029090620006bb565b90600052602060002090601f016020900481019282620002b4576000855562000300565b82601f10620002cf57805160ff191683800117855562000300565b8280016001018555821562000300579182015b82811115620002ff578251825591602001919060010190620002e2565b5b5090506200030f919062000313565b5090565b5b808211156200032e57600081600090555060010162000314565b5090565b7f4e487b7100000000000000000000000000000000000000000000000000000000600052601160045260246000fd5b60008160011c9050919050565b6000808291508390505b6001851115620003c05780860481111562000398576200039762000332565b5b6001851615620003a85780820291505b8081029050620003b88562000361565b945062000378565b94509492505050565b600082620003db5760019050620004ae565b81620003eb5760009050620004ae565b81600181146200040457600281146200040f5762000445565b6001915050620004ae565b60ff84111562000424576200042362000332565b5b8360020a9150848211156200043e576200043d62000332565b5b50620004ae565b5060208310610133831016604e8410600b84101617156200047f5782820a90508381111562000479576200047862000332565b5b620004ae565b6200048e84848460016200036e565b92509050818404811115620004a857620004a762000332565b5b81810290505b9392505050565b6000819050919050565b600060ff82169050919050565b6000620004d982620004b5565b9150620004e683620004bf565b9250620005157fffffffffffffffffffffffffffffffffffffffffffffffffffffffffffffffff8484620003c9565b905092915050565b60006200052a82620004b5565b91506200053783620004b5565b9250817fffffffffffffffffffffffffffffffffffffffffffffffffffffffffffffffff048311821515161562000573576200057262000332565b5b828202905092915050565b600082825260208201905092915050565b7f45524332303a206d696e7420746f20746865207a65726f206164647265737300600082015250565b6000620005c7601f836200057e565b9150620005d4826200058f565b602082019050919050565b60006020820190508181036000830152620005fa81620005b8565b9050919050565b60006200060e82620004b5565b91506200061b83620004b5565b9250827fffffffffffffffffffffffffffffffffffffffffffffffffffffffffffffffff0382111562000653576200065262000332565b5b828201905092915050565b6200066981620004b5565b82525050565b60006020820190506200068660008301846200065e565b92915050565b7f4e487b7100000000000000000000000000000000000000000000000000000000600052602260045260246000fd5b60006002820490506001821680620006d457607f821691505b60208210811415620006eb57620006ea6200068c565b5b50919050565b6115a880620007016000396000f3fe608060405234801561001057600080fd5b50600436106100ea5760003560e01c8063395093511161008c57806395d89b411161006657806395d89b4114610273578063a457c2d714610291578063a9059cbb146102c1578063dd62ed3e146102f1576100ea565b806339509351146101f757806340c10f191461022757806370a0823114610243576100ea565b806318160ddd116100c857806318160ddd1461015b57806323b872dd1461017957806327e235e3146101a9578063313ce567146101d9576100ea565b806306fdde03146100ef578063075461721461010d578063095ea7b31461012b575b600080fd5b6100f7610321565b6040516101049190610df9565b60405180910390f35b61011561035e565b6040516101229190610e5c565b60405180910390f35b61014560048036038101906101409190610ede565b610384565b6040516101529190610f39565b60405180910390f35b6101636103a7565b6040516101709190610f63565b60405180910390f35b610193600480360381019061018e9190610f7e565b6103b1565b6040516101a09190610f39565b60405180910390f35b6101c360048036038101906101be9190610fd1565b6103e0565b6040516101d09190610f63565b60405180910390f35b6101e16103f8565b6040516101ee919061101a565b60405180910390f35b610211600480360381019061020c9190610ede565b610401565b60405161021e9190610f39565b60405180910390f35b610241600480360381019061023c9190610ede565b610438565b005b61025d60048036038101906102589190610fd1565b610553565b60405161026a9190610f63565b60405180910390f35b61027b61059c565b6040516102889190610df9565b60405180910390f35b6102ab60048036038101906102a69190610ede565b6105d9565b6040516102b89190610f39565b60405180910390f35b6102db60048036038101906102d69190610ede565b610650565b6040516102e89190610f39565b60405180910390f35b61030b60048036038101906103069190611035565b6107ef565b6040516103189190610f63565b60405180910390f35b60606040518060400160405280601281526020017f5265616c43686f75626579546f6b656e56320000000000000000000000000000815250905090565b600560009054906101000a900473ffffffffffffffffffffffffffffffffffffffff1681565b60008061038f610876565b905061039c81858561087e565b600191505092915050565b6000600254905090565b6000806103bc610876565b90506103c9858285610a49565b6103d4858585610ad5565b60019150509392505050565b60066020528060005260406000206000915090505481565b60006012905090565b60008061040c610876565b905061042d81858561041e85896107ef565b61042891906110a4565b61087e565b600191505092915050565b600560009054906101000a900473ffffffffffffffffffffffffffffffffffffffff1673ffffffffffffffffffffffffffffffffffffffff163373ffffffffffffffffffffffffffffffffffffffff16146104925761054f565b80600660008473ffffffffffffffffffffffffffffffffffffffff1673ffffffffffffffffffffffffffffffffffffffff16815260200190815260200160002060008282546104e191906110a4565b925050819055503373ffffffffffffffffffffffffffffffffffffffff16600073ffffffffffffffffffffffffffffffffffffffff167fddf252ad1be2c89b69c2b068fc378daa952ba7f163c4a11628f55a4df523b3ef836040516105469190610f63565b60405180910390a35b5050565b6000600660008373ffffffffffffffffffffffffffffffffffffffff1673ffffffffffffffffffffffffffffffffffffffff168152602001908152602001600020549050919050565b60606040518060400160405280600381526020017f5243540000000000000000000000000000000000000000000000000000000000815250905090565b6000806105e4610876565b905060006105f282866107ef565b905083811015610637576040517f08c379a000000000000000000000000000000000000000000000000000000000815260040161062e9061116c565b60405180910390fd5b610644828686840361087e565b60019250505092915050565b600081600660003373ffffffffffffffffffffffffffffffffffffffff1673ffffffffffffffffffffffffffffffffffffffff1681526020019081526020016000205410156106d4576040517f08c379a00000000000000000000000000000000000000000000000000000000081526004016106cb906111d8565b60405180910390fd5b81600660003373ffffffffffffffffffffffffffffffffffffffff1673ffffffffffffffffffffffffffffffffffffffff168152602001908152602001600020600082825461072391906111f8565b9250508190555081600660008573ffffffffffffffffffffffffffffffffffffffff1673ffffffffffffffffffffffffffffffffffffffff168152602001908152602001600020600082825461077991906110a4565b925050819055508273ffffffffffffffffffffffffffffffffffffffff163373ffffffffffffffffffffffffffffffffffffffff167fddf252ad1be2c89b69c2b068fc378daa952ba7f163c4a11628f55a4df523b3ef846040516107dd9190610f63565b60405180910390a36001905092915050565b6000600160008473ffffffffffffffffffffffffffffffffffffffff1673ffffffffffffffffffffffffffffffffffffffff16815260200190815260200160002060008373ffffffffffffffffffffffffffffffffffffffff1673ffffffffffffffffffffffffffffffffffffffff16815260200190815260200160002054905092915050565b600033905090565b600073ffffffffffffffffffffffffffffffffffffffff168373ffffffffffffffffffffffffffffffffffffffff1614156108ee576040517f08c379a00000000000000000000000000000000000000000000000000000000081526004016108e59061129e565b60405180910390fd5b600073ffffffffffffffffffffffffffffffffffffffff168273ffffffffffffffffffffffffffffffffffffffff16141561095e576040517f08c379a000000000000000000000000000000000000000000000000000000000815260040161095590611330565b60405180910390fd5b80600160008573ffffffffffffffffffffffffffffffffffffffff1673ffffffffffffffffffffffffffffffffffffffff16815260200190815260200160002060008473ffffffffffffffffffffffffffffffffffffffff1673ffffffffffffffffffffffffffffffffffffffff168152602001908152602001600020819055508173ffffffffffffffffffffffffffffffffffffffff168373ffffffffffffffffffffffffffffffffffffffff167f8c5be1e5ebec7d5bd14f71427d1e84f3dd0314c0f7b2291e5b200ac8c7c3b92583604051610a3c9190610f63565b60405180910390a3505050565b6000610a5584846107ef565b90507fffffffffffffffffffffffffffffffffffffffffffffffffffffffffffffffff8114610acf5781811015610ac1576040517f08c379a0000000000000000000000000000000000000000000000000000000008152600401610ab89061139c565b60405180910390fd5b610ace848484840361087e565b5b50505050565b600073ffffffffffffffffffffffffffffffffffffffff168373ffffffffffffffffffffffffffffffffffffffff161415610b45576040517f08c379a0000000000000000000000000000000000000000000000000000000008152600401610b3c9061142e565b60405180910390fd5b600073ffffffffffffffffffffffffffffffffffffffff168273ffffffffffffffffffffffffffffffffffffffff161415610bb5576040517f08c379a0000000000000000000000000000000000000000000000000000000008152600401610bac906114c0565b60405180910390fd5b610bc0838383610d56565b60008060008573ffffffffffffffffffffffffffffffffffffffff1673ffffffffffffffffffffffffffffffffffffffff16815260200190815260200160002054905081811015610c46576040517f08c379a0000000000000000000000000000000000000000000000000000000008152600401610c3d90611552565b60405180910390fd5b8181036000808673ffffffffffffffffffffffffffffffffffffffff1673ffffffffffffffffffffffffffffffffffffffff16815260200190815260200160002081905550816000808573ffffffffffffffffffffffffffffffffffffffff1673ffffffffffffffffffffffffffffffffffffffff1681526020019081526020016000206000828254610cd991906110a4565b925050819055508273ffffffffffffffffffffffffffffffffffffffff168473ffffffffffffffffffffffffffffffffffffffff167fddf252ad1be2c89b69c2b068fc378daa952ba7f163c4a11628f55a4df523b3ef84604051610d3d9190610f63565b60405180910390a3610d50848484610d5b565b50505050565b505050565b505050565b600081519050919050565b600082825260208201905092915050565b60005b83811015610d9a578082015181840152602081019050610d7f565b83811115610da9576000848401525b50505050565b6000601f19601f8301169050919050565b6000610dcb82610d60565b610dd58185610d6b565b9350610de5818560208601610d7c565b610dee81610daf565b840191505092915050565b60006020820190508181036000830152610e138184610dc0565b905092915050565b600073ffffffffffffffffffffffffffffffffffffffff82169050919050565b6000610e4682610e1b565b9050919050565b610e5681610e3b565b82525050565b6000602082019050610e716000830184610e4d565b92915050565b600080fd5b610e8581610e3b565b8114610e9057600080fd5b50565b600081359050610ea281610e7c565b92915050565b6000819050919050565b610ebb81610ea8565b8114610ec657600080fd5b50565b600081359050610ed881610eb2565b92915050565b60008060408385031215610ef557610ef4610e77565b5b6000610f0385828601610e93565b9250506020610f1485828601610ec9565b9150509250929050565b60008115159050919050565b610f3381610f1e565b82525050565b6000602082019050610f4e6000830184610f2a565b92915050565b610f5d81610ea8565b82525050565b6000602082019050610f786000830184610f54565b92915050565b600080600060608486031215610f9757610f96610e77565b5b6000610fa586828701610e93565b9350506020610fb686828701610e93565b9250506040610fc786828701610ec9565b9150509250925092565b600060208284031215610fe757610fe6610e77565b5b6000610ff584828501610e93565b91505092915050565b600060ff82169050919050565b61101481610ffe565b82525050565b600060208201905061102f600083018461100b565b92915050565b6000806040838503121561104c5761104b610e77565b5b600061105a85828601610e93565b925050602061106b85828601610e93565b9150509250929050565b7f4e487b7100000000000000000000000000000000000000000000000000000000600052601160045260246000fd5b60006110af82610ea8565b91506110ba83610ea8565b9250827fffffffffffffffffffffffffffffffffffffffffffffffffffffffffffffffff038211156110ef576110ee611075565b5b828201905092915050565b7f45524332303a2064656372656173656420616c6c6f77616e63652062656c6f7760008201527f207a65726f000000000000000000000000000000000000000000000000000000602082015250565b6000611156602583610d6b565b9150611161826110fa565b604082019050919050565b6000602082019050818103600083015261118581611149565b9050919050565b7f4e6f7420656e6f75676820746f6b656e73000000000000000000000000000000600082015250565b60006111c2601183610d6b565b91506111cd8261118c565b602082019050919050565b600060208201905081810360008301526111f1816111b5565b9050919050565b600061120382610ea8565b915061120e83610ea8565b92508282101561122157611220611075565b5b828203905092915050565b7f45524332303a20617070726f76652066726f6d20746865207a65726f2061646460008201527f7265737300000000000000000000000000000000000000000000000000000000602082015250565b6000611288602483610d6b565b91506112938261122c565b604082019050919050565b600060208201905081810360008301526112b78161127b565b9050919050565b7f45524332303a20617070726f766520746f20746865207a65726f20616464726560008201527f7373000000000000000000000000000000000000000000000000000000000000602082015250565b600061131a602283610d6b565b9150611325826112be565b604082019050919050565b600060208201905081810360008301526113498161130d565b9050919050565b7f45524332303a20696e73756666696369656e7420616c6c6f77616e6365000000600082015250565b6000611386601d83610d6b565b915061139182611350565b602082019050919050565b600060208201905081810360008301526113b581611379565b9050919050565b7f45524332303a207472616e736665722066726f6d20746865207a65726f20616460008201527f6472657373000000000000000000000000000000000000000000000000000000602082015250565b6000611418602583610d6b565b9150611423826113bc565b604082019050919050565b600060208201905081810360008301526114478161140b565b9050919050565b7f45524332303a207472616e7366657220746f20746865207a65726f206164647260008201527f6573730000000000000000000000000000000000000000000000000000000000602082015250565b60006114aa602383610d6b565b91506114b58261144e565b604082019050919050565b600060208201905081810360008301526114d98161149d565b9050919050565b7f45524332303a207472616e7366657220616d6f756e742065786365656473206260008201527f616c616e63650000000000000000000000000000000000000000000000000000602082015250565b600061153c602683610d6b565b9150611547826114e0565b604082019050919050565b6000602082019050818103600083015261156b8161152f565b905091905056fea264697066735822122043df3885fb26b38f9e7959d6422aa8fe883bccfa939f16cf8103ba71e47427e164736f6c63430008090033",
  "linkReferences": {},
  "deployedLinkReferences": {}
}