{
  "_format": "hh-sol-artifact-1",
  "contractName": "RCTokenV2",
  "sourceName": "contracts/RCTokenERC20.sol",
  "abi": [
    {
      "inputs": [],
      "stateMutability": "nonpayable",
      "type": "constructor"
    },
    {
      "anonymous": false,
      "inputs": [
        {
          "indexed": true,
          "internalType": "address",
          "name": "owner",
          "type": "address"
        },
        {
          "indexed": true,
          "internalType": "address",
          "name": "spender",
          "type": "address"
        },
        {
          "indexed": false,
          "internalType": "uint256",
          "name": "value",
          "type": "uint256"
        }
      ],
      "name": "Approval",
      "type": "event"
    },
    {
      "anonymous": false,
      "inputs": [
        {
          "indexed": true,
          "internalType": "address",
          "name": "from",
          "type": "address"
        },
        {
          "indexed": true,
          "internalType": "address",
          "name": "to",
          "type": "address"
        },
        {
          "indexed": false,
          "internalType": "uint256",
          "name": "value",
          "type": "uint256"
        }
      ],
      "name": "Transfer",
      "type": "event"
    },
    {
      "inputs": [
        {
          "internalType": "address",
          "name": "owner",
          "type": "address"
        },
        {
          "internalType": "address",
          "name": "spender",
          "type": "address"
        }
      ],
      "name": "allowance",
      "outputs": [
        {
          "internalType": "uint256",
          "name": "",
          "type": "uint256"
        }
      ],
      "stateMutability": "view",
      "type": "function"
    },
    {
      "inputs": [
        {
          "internalType": "address",
          "name": "spender",
          "type": "address"
        },
        {
          "internalType": "uint256",
          "name": "amount",
          "type": "uint256"
        }
      ],
      "name": "approve",
      "outputs": [
        {
          "internalType": "bool",
          "name": "",
          "type": "bool"
        }
      ],
      "stateMutability": "nonpayable",
      "type": "function"
    },
    {
      "inputs": [
        {
          "internalType": "address",
          "name": "account",
          "type": "address"
        }
      ],
      "name": "balanceOf",
      "outputs": [
        {
          "internalType": "uint256",
          "name": "",
          "type": "uint256"
        }
      ],
      "stateMutability": "view",
      "type": "function"
    },
    {
      "inputs": [
        {
          "internalType": "uint256",
          "name": "amount",
          "type": "uint256"
        }
      ],
      "name": "burn",
      "outputs": [
        {
          "internalType": "bool",
          "name": "",
          "type": "bool"
        }
      ],
      "stateMutability": "nonpayable",
      "type": "function"
    },
    {
      "inputs": [],
      "name": "decimals",
      "outputs": [
        {
          "internalType": "uint8",
          "name": "",
          "type": "uint8"
        }
      ],
      "stateMutability": "view",
      "type": "function"
    },
    {
      "inputs": [
        {
          "internalType": "address",
          "name": "spender",
          "type": "address"
        },
        {
          "internalType": "uint256",
          "name": "subtractedValue",
          "type": "uint256"
        }
      ],
      "name": "decreaseAllowance",
      "outputs": [
        {
          "internalType": "bool",
          "name": "",
          "type": "bool"
        }
      ],
      "stateMutability": "nonpayable",
      "type": "function"
    },
    {
      "inputs": [
        {
          "internalType": "address",
          "name": "spender",
          "type": "address"
        },
        {
          "internalType": "uint256",
          "name": "addedValue",
          "type": "uint256"
        }
      ],
      "name": "increaseAllowance",
      "outputs": [
        {
          "internalType": "bool",
          "name": "",
          "type": "bool"
        }
      ],
      "stateMutability": "nonpayable",
      "type": "function"
    },
    {
      "inputs": [
        {
          "internalType": "address",
          "name": "receiver",
          "type": "address"
        },
        {
          "internalType": "uint256",
          "name": "amount",
          "type": "uint256"
        }
      ],
      "name": "mint",
      "outputs": [],
      "stateMutability": "nonpayable",
      "type": "function"
    },
    {
      "inputs": [],
      "name": "minter",
      "outputs": [
        {
          "internalType": "address",
          "name": "",
          "type": "address"
        }
      ],
      "stateMutability": "view",
      "type": "function"
    },
    {
      "inputs": [],
      "name": "name",
      "outputs": [
        {
          "internalType": "string",
          "name": "",
          "type": "string"
        }
      ],
      "stateMutability": "view",
      "type": "function"
    },
    {
      "inputs": [],
      "name": "symbol",
      "outputs": [
        {
          "internalType": "string",
          "name": "",
          "type": "string"
        }
      ],
      "stateMutability": "view",
      "type": "function"
    },
    {
      "inputs": [],
      "name": "totalSupply",
      "outputs": [
        {
          "internalType": "uint256",
          "name": "",
          "type": "uint256"
        }
      ],
      "stateMutability": "view",
      "type": "function"
    },
    {
      "inputs": [
        {
          "internalType": "address",
          "name": "to",
          "type": "address"
        },
        {
          "internalType": "uint256",
          "name": "amount",
          "type": "uint256"
        }
      ],
      "name": "transfer",
      "outputs": [
        {
          "internalType": "bool",
          "name": "",
          "type": "bool"
        }
      ],
      "stateMutability": "nonpayable",
      "type": "function"
    },
    {
      "inputs": [
        {
          "internalType": "address",
          "name": "from",
          "type": "address"
        },
        {
          "internalType": "address",
          "name": "to",
          "type": "address"
        },
        {
          "internalType": "uint256",
          "name": "amount",
          "type": "uint256"
        }
      ],
      "name": "transferFrom",
      "outputs": [
        {
          "internalType": "bool",
          "name": "",
          "type": "bool"
        }
      ],
      "stateMutability": "nonpayable",
      "type": "function"
    }
  ],
  "bytecode": "0x60806040523480156200001157600080fd5b506040518060400160405280601281526020017f5265616c43686f75626579546f6b656e563300000000000000000000000000008152506040518060400160405280600381526020017f5243540000000000000000000000000000000000000000000000000000000000815250816003908051906020019062000096929190620002c3565b508060049080519060200190620000af929190620002c3565b505050620000f033620000c76200013760201b60201c565b600a620000d591906200050d565b612710620000e491906200055e565b6200014060201b60201c565b33600560006101000a81548173ffffffffffffffffffffffffffffffffffffffff021916908373ffffffffffffffffffffffffffffffffffffffff16021790555062000732565b60006012905090565b600073ffffffffffffffffffffffffffffffffffffffff168273ffffffffffffffffffffffffffffffffffffffff161415620001b3576040517f08c379a0000000000000000000000000000000000000000000000000000000008152600401620001aa9062000620565b60405180910390fd5b620001c760008383620002b960201b60201c565b8060026000828254620001db919062000642565b92505081905550806000808473ffffffffffffffffffffffffffffffffffffffff1673ffffffffffffffffffffffffffffffffffffffff168152602001908152602001600020600082825462000232919062000642565b925050819055508173ffffffffffffffffffffffffffffffffffffffff16600073ffffffffffffffffffffffffffffffffffffffff167fddf252ad1be2c89b69c2b068fc378daa952ba7f163c4a11628f55a4df523b3ef83604051620002999190620006b0565b60405180910390a3620002b560008383620002be60201b60201c565b5050565b505050565b505050565b828054620002d190620006fc565b90600052602060002090601f016020900481019282620002f5576000855562000341565b82601f106200031057805160ff191683800117855562000341565b8280016001018555821562000341579182015b828111156200034057825182559160200191906001019062000323565b5b50905062000350919062000354565b5090565b5b808211156200036f57600081600090555060010162000355565b5090565b7f4e487b7100000000000000000000000000000000000000000000000000000000600052601160045260246000fd5b60008160011c9050919050565b6000808291508390505b60018511156200040157808604811115620003d957620003d862000373565b5b6001851615620003e95780820291505b8081029050620003f985620003a2565b9450620003b9565b94509492505050565b6000826200041c5760019050620004ef565b816200042c5760009050620004ef565b8160018114620004455760028114620004505762000486565b6001915050620004ef565b60ff84111562000465576200046462000373565b5b8360020a9150848211156200047f576200047e62000373565b5b50620004ef565b5060208310610133831016604e8410600b8410161715620004c05782820a905083811115620004ba57620004b962000373565b5b620004ef565b620004cf8484846001620003af565b92509050818404811115620004e957620004e862000373565b5b81810290505b9392505050565b6000819050919050565b600060ff82169050919050565b60006200051a82620004f6565b9150620005278362000500565b9250620005567fffffffffffffffffffffffffffffffffffffffffffffffffffffffffffffffff84846200040a565b905092915050565b60006200056b82620004f6565b91506200057883620004f6565b9250817fffffffffffffffffffffffffffffffffffffffffffffffffffffffffffffffff0483118215151615620005b457620005b362000373565b5b828202905092915050565b600082825260208201905092915050565b7f45524332303a206d696e7420746f20746865207a65726f206164647265737300600082015250565b600062000608601f83620005bf565b91506200061582620005d0565b602082019050919050565b600060208201905081810360008301526200063b81620005f9565b9050919050565b60006200064f82620004f6565b91506200065c83620004f6565b9250827fffffffffffffffffffffffffffffffffffffffffffffffffffffffffffffffff0382111562000694576200069362000373565b5b828201905092915050565b620006aa81620004f6565b82525050565b6000602082019050620006c760008301846200069f565b92915050565b7f4e487b7100000000000000000000000000000000000000000000000000000000600052602260045260246000fd5b600060028204905060018216806200071557607f821691505b602082108114156200072c576200072b620006cd565b5b50919050565b611a2280620007426000396000f3fe608060405234801561001057600080fd5b50600436106100ea5760003560e01c806340c10f191161008c57806395d89b411161006657806395d89b4114610273578063a457c2d714610291578063a9059cbb146102c1578063dd62ed3e146102f1576100ea565b806340c10f19146101f757806342966c681461021357806370a0823114610243576100ea565b806318160ddd116100c857806318160ddd1461015b57806323b872dd14610179578063313ce567146101a957806339509351146101c7576100ea565b806306fdde03146100ef578063075461721461010d578063095ea7b31461012b575b600080fd5b6100f7610321565b6040516101049190611055565b60405180910390f35b6101156103b3565b60405161012291906110b8565b60405180910390f35b6101456004803603810190610140919061113a565b6103d9565b6040516101529190611195565b60405180910390f35b6101636103f0565b60405161017091906111bf565b60405180910390f35b610193600480360381019061018e91906111da565b6103fa565b6040516101a09190611195565b60405180910390f35b6101b1610429565b6040516101be9190611249565b60405180910390f35b6101e160048036038101906101dc919061113a565b610432565b6040516101ee9190611195565b60405180910390f35b610211600480360381019061020c919061113a565b610469565b005b61022d60048036038101906102289190611264565b610507565b60405161023a9190611195565b60405180910390f35b61025d60048036038101906102589190611291565b6105ac565b60405161026a91906111bf565b60405180910390f35b61027b6105f4565b6040516102889190611055565b60405180910390f35b6102ab60048036038101906102a6919061113a565b610686565b6040516102b89190611195565b60405180910390f35b6102db60048036038101906102d6919061113a565b6106fd565b6040516102e89190611195565b60405180910390f35b61030b600480360381019061030691906112be565b610714565b60405161031891906111bf565b60405180910390f35b6060600380546103309061132d565b80601f016020809104026020016040519081016040528092919081815260200182805461035c9061132d565b80156103a95780601f1061037e576101008083540402835291602001916103a9565b820191906000526020600020905b81548152906001019060200180831161038c57829003601f168201915b5050505050905090565b600560009054906101000a900473ffffffffffffffffffffffffffffffffffffffff1681565b60006103e633848461079b565b6001905092915050565b6000600254905090565b600080610405610966565b905061041285828561096e565b61041d8585856109fa565b60019150509392505050565b60006012905090565b60008061043d610966565b905061045e81858561044f8589610714565b610459919061138e565b61079b565b600191505092915050565b600560009054906101000a900473ffffffffffffffffffffffffffffffffffffffff1673ffffffffffffffffffffffffffffffffffffffff163373ffffffffffffffffffffffffffffffffffffffff16146104f9576040517f08c379a00000000000000000000000000000000000000000000000000000000081526004016104f090611430565b60405180910390fd5b6105038282610c7b565b5050565b6000600560009054906101000a900473ffffffffffffffffffffffffffffffffffffffff1673ffffffffffffffffffffffffffffffffffffffff163373ffffffffffffffffffffffffffffffffffffffff1614610599576040517f08c379a000000000000000000000000000000000000000000000000000000000815260040161059090611430565b60405180910390fd5b6105a33383610ddb565b60019050919050565b60008060008373ffffffffffffffffffffffffffffffffffffffff1673ffffffffffffffffffffffffffffffffffffffff168152602001908152602001600020549050919050565b6060600480546106039061132d565b80601f016020809104026020016040519081016040528092919081815260200182805461062f9061132d565b801561067c5780601f106106515761010080835404028352916020019161067c565b820191906000526020600020905b81548152906001019060200180831161065f57829003601f168201915b5050505050905090565b600080610691610966565b9050600061069f8286610714565b9050838110156106e4576040517f08c379a00000000000000000000000000000000000000000000000000000000081526004016106db906114c2565b60405180910390fd5b6106f1828686840361079b565b60019250505092915050565b600061070a3384846109fa565b6001905092915050565b6000600160008473ffffffffffffffffffffffffffffffffffffffff1673ffffffffffffffffffffffffffffffffffffffff16815260200190815260200160002060008373ffffffffffffffffffffffffffffffffffffffff1673ffffffffffffffffffffffffffffffffffffffff16815260200190815260200160002054905092915050565b600073ffffffffffffffffffffffffffffffffffffffff168373ffffffffffffffffffffffffffffffffffffffff16141561080b576040517f08c379a000000000000000000000000000000000000000000000000000000000815260040161080290611554565b60405180910390fd5b600073ffffffffffffffffffffffffffffffffffffffff168273ffffffffffffffffffffffffffffffffffffffff16141561087b576040517f08c379a0000000000000000000000000000000000000000000000000000000008152600401610872906115e6565b60405180910390fd5b80600160008573ffffffffffffffffffffffffffffffffffffffff1673ffffffffffffffffffffffffffffffffffffffff16815260200190815260200160002060008473ffffffffffffffffffffffffffffffffffffffff1673ffffffffffffffffffffffffffffffffffffffff168152602001908152602001600020819055508173ffffffffffffffffffffffffffffffffffffffff168373ffffffffffffffffffffffffffffffffffffffff167f8c5be1e5ebec7d5bd14f71427d1e84f3dd0314c0f7b2291e5b200ac8c7c3b9258360405161095991906111bf565b60405180910390a3505050565b600033905090565b600061097a8484610714565b90507fffffffffffffffffffffffffffffffffffffffffffffffffffffffffffffffff81146109f457818110156109e6576040517f08c379a00000000000000000000000000000000000000000000000000000000081526004016109dd90611652565b60405180910390fd5b6109f3848484840361079b565b5b50505050565b600073ffffffffffffffffffffffffffffffffffffffff168373ffffffffffffffffffffffffffffffffffffffff161415610a6a576040517f08c379a0000000000000000000000000000000000000000000000000000000008152600401610a61906116e4565b60405180910390fd5b600073ffffffffffffffffffffffffffffffffffffffff168273ffffffffffffffffffffffffffffffffffffffff161415610ada576040517f08c379a0000000000000000000000000000000000000000000000000000000008152600401610ad190611776565b60405180910390fd5b610ae5838383610fb2565b60008060008573ffffffffffffffffffffffffffffffffffffffff1673ffffffffffffffffffffffffffffffffffffffff16815260200190815260200160002054905081811015610b6b576040517f08c379a0000000000000000000000000000000000000000000000000000000008152600401610b6290611808565b60405180910390fd5b8181036000808673ffffffffffffffffffffffffffffffffffffffff1673ffffffffffffffffffffffffffffffffffffffff16815260200190815260200160002081905550816000808573ffffffffffffffffffffffffffffffffffffffff1673ffffffffffffffffffffffffffffffffffffffff1681526020019081526020016000206000828254610bfe919061138e565b925050819055508273ffffffffffffffffffffffffffffffffffffffff168473ffffffffffffffffffffffffffffffffffffffff167fddf252ad1be2c89b69c2b068fc378daa952ba7f163c4a11628f55a4df523b3ef84604051610c6291906111bf565b60405180910390a3610c75848484610fb7565b50505050565b600073ffffffffffffffffffffffffffffffffffffffff168273ffffffffffffffffffffffffffffffffffffffff161415610ceb576040517f08c379a0000000000000000000000000000000000000000000000000000000008152600401610ce290611874565b60405180910390fd5b610cf760008383610fb2565b8060026000828254610d09919061138e565b92505081905550806000808473ffffffffffffffffffffffffffffffffffffffff1673ffffffffffffffffffffffffffffffffffffffff1681526020019081526020016000206000828254610d5e919061138e565b925050819055508173ffffffffffffffffffffffffffffffffffffffff16600073ffffffffffffffffffffffffffffffffffffffff167fddf252ad1be2c89b69c2b068fc378daa952ba7f163c4a11628f55a4df523b3ef83604051610dc391906111bf565b60405180910390a3610dd760008383610fb7565b5050565b600073ffffffffffffffffffffffffffffffffffffffff168273ffffffffffffffffffffffffffffffffffffffff161415610e4b576040517f08c379a0000000000000000000000000000000000000000000000000000000008152600401610e4290611906565b60405180910390fd5b610e5782600083610fb2565b60008060008473ffffffffffffffffffffffffffffffffffffffff1673ffffffffffffffffffffffffffffffffffffffff16815260200190815260200160002054905081811015610edd576040517f08c379a0000000000000000000000000000000000000000000000000000000008152600401610ed490611998565b60405180910390fd5b8181036000808573ffffffffffffffffffffffffffffffffffffffff1673ffffffffffffffffffffffffffffffffffffffff168152602001908152602001600020819055508160026000828254610f3491906119b8565b92505081905550600073ffffffffffffffffffffffffffffffffffffffff168373ffffffffffffffffffffffffffffffffffffffff167fddf252ad1be2c89b69c2b068fc378daa952ba7f163c4a11628f55a4df523b3ef84604051610f9991906111bf565b60405180910390a3610fad83600084610fb7565b505050565b505050565b505050565b600081519050919050565b600082825260208201905092915050565b60005b83811015610ff6578082015181840152602081019050610fdb565b83811115611005576000848401525b50505050565b6000601f19601f8301169050919050565b600061102782610fbc565b6110318185610fc7565b9350611041818560208601610fd8565b61104a8161100b565b840191505092915050565b6000602082019050818103600083015261106f818461101c565b905092915050565b600073ffffffffffffffffffffffffffffffffffffffff82169050919050565b60006110a282611077565b9050919050565b6110b281611097565b82525050565b60006020820190506110cd60008301846110a9565b92915050565b600080fd5b6110e181611097565b81146110ec57600080fd5b50565b6000813590506110fe816110d8565b92915050565b6000819050919050565b61111781611104565b811461112257600080fd5b50565b6000813590506111348161110e565b92915050565b60008060408385031215611151576111506110d3565b5b600061115f858286016110ef565b925050602061117085828601611125565b9150509250929050565b60008115159050919050565b61118f8161117a565b82525050565b60006020820190506111aa6000830184611186565b92915050565b6111b981611104565b82525050565b60006020820190506111d460008301846111b0565b92915050565b6000806000606084860312156111f3576111f26110d3565b5b6000611201868287016110ef565b9350506020611212868287016110ef565b925050604061122386828701611125565b9150509250925092565b600060ff82169050919050565b6112438161122d565b82525050565b600060208201905061125e600083018461123a565b92915050565b60006020828403121561127a576112796110d3565b5b600061128884828501611125565b91505092915050565b6000602082840312156112a7576112a66110d3565b5b60006112b5848285016110ef565b91505092915050565b600080604083850312156112d5576112d46110d3565b5b60006112e3858286016110ef565b92505060206112f4858286016110ef565b9150509250929050565b7f4e487b7100000000000000000000000000000000000000000000000000000000600052602260045260246000fd5b6000600282049050600182168061134557607f821691505b60208210811415611359576113586112fe565b5b50919050565b7f4e487b7100000000000000000000000000000000000000000000000000000000600052601160045260246000fd5b600061139982611104565b91506113a483611104565b9250827fffffffffffffffffffffffffffffffffffffffffffffffffffffffffffffffff038211156113d9576113d861135f565b5b828201905092915050565b7f45524332303a20496e636f7272656374206d696e746572000000000000000000600082015250565b600061141a601783610fc7565b9150611425826113e4565b602082019050919050565b600060208201905081810360008301526114498161140d565b9050919050565b7f45524332303a2064656372656173656420616c6c6f77616e63652062656c6f7760008201527f207a65726f000000000000000000000000000000000000000000000000000000602082015250565b60006114ac602583610fc7565b91506114b782611450565b604082019050919050565b600060208201905081810360008301526114db8161149f565b9050919050565b7f45524332303a20617070726f76652066726f6d20746865207a65726f2061646460008201527f7265737300000000000000000000000000000000000000000000000000000000602082015250565b600061153e602483610fc7565b9150611549826114e2565b604082019050919050565b6000602082019050818103600083015261156d81611531565b9050919050565b7f45524332303a20617070726f766520746f20746865207a65726f20616464726560008201527f7373000000000000000000000000000000000000000000000000000000000000602082015250565b60006115d0602283610fc7565b91506115db82611574565b604082019050919050565b600060208201905081810360008301526115ff816115c3565b9050919050565b7f45524332303a20696e73756666696369656e7420616c6c6f77616e6365000000600082015250565b600061163c601d83610fc7565b915061164782611606565b602082019050919050565b6000602082019050818103600083015261166b8161162f565b9050919050565b7f45524332303a207472616e736665722066726f6d20746865207a65726f20616460008201527f6472657373000000000000000000000000000000000000000000000000000000602082015250565b60006116ce602583610fc7565b91506116d982611672565b604082019050919050565b600060208201905081810360008301526116fd816116c1565b9050919050565b7f45524332303a207472616e7366657220746f20746865207a65726f206164647260008201527f6573730000000000000000000000000000000000000000000000000000000000602082015250565b6000611760602383610fc7565b915061176b82611704565b604082019050919050565b6000602082019050818103600083015261178f81611753565b9050919050565b7f45524332303a207472616e7366657220616d6f756e742065786365656473206260008201527f616c616e63650000000000000000000000000000000000000000000000000000602082015250565b60006117f2602683610fc7565b91506117fd82611796565b604082019050919050565b60006020820190508181036000830152611821816117e5565b9050919050565b7f45524332303a206d696e7420746f20746865207a65726f206164647265737300600082015250565b600061185e601f83610fc7565b915061186982611828565b602082019050919050565b6000602082019050818103600083015261188d81611851565b9050919050565b7f45524332303a206275726e2066726f6d20746865207a65726f2061646472657360008201527f7300000000000000000000000000000000000000000000000000000000000000602082015250565b60006118f0602183610fc7565b91506118fb82611894565b604082019050919050565b6000602082019050818103600083015261191f816118e3565b9050919050565b7f45524332303a206275726e20616d6f756e7420657863656564732062616c616e60008201527f6365000000000000000000000000000000000000000000000000000000000000602082015250565b6000611982602283610fc7565b915061198d82611926565b604082019050919050565b600060208201905081810360008301526119b181611975565b9050919050565b60006119c382611104565b91506119ce83611104565b9250828210156119e1576119e061135f565b5b82820390509291505056fea2646970667358221220649908ca1c35c1ffab57343c01157259a4aba945d0af8e44b1f83e3c6fff707e64736f6c63430008090033",
  "linkReferences": {},
  "deployedLinkReferences": {}
}