{
  "_format": "hh-sol-artifact-1",
  "contractName": "yourToken",
  "sourceName": "contracts/minting.sol",
  "abi": [
    {
      "inputs": [],
      "stateMutability": "nonpayable",
      "type": "constructor"
    },
    {
      "anonymous": false,
      "inputs": [
        {
          "indexed": false,
          "internalType": "address",
          "name": "from",
          "type": "address"
        },
        {
          "indexed": false,
          "internalType": "address",
          "name": "to",
          "type": "address"
        },
        {
          "indexed": false,
          "internalType": "uint256",
          "name": "amount",
          "type": "uint256"
        }
      ],
      "name": "Sent",
      "type": "event"
    },
    {
      "inputs": [
        {
          "internalType": "address",
          "name": "account",
          "type": "address"
        }
      ],
      "name": "balanceOf",
      "outputs": [
        {
          "internalType": "uint256",
          "name": "",
          "type": "uint256"
        }
      ],
      "stateMutability": "view",
      "type": "function"
    },
    {
      "inputs": [
        {
          "internalType": "address",
          "name": "",
          "type": "address"
        }
      ],
      "name": "balances",
      "outputs": [
        {
          "internalType": "uint256",
          "name": "",
          "type": "uint256"
        }
      ],
      "stateMutability": "view",
      "type": "function"
    },
    {
      "inputs": [
        {
          "internalType": "address",
          "name": "receiver",
          "type": "address"
        },
        {
          "internalType": "uint256",
          "name": "amount",
          "type": "uint256"
        }
      ],
      "name": "mint",
      "outputs": [],
      "stateMutability": "nonpayable",
      "type": "function"
    },
    {
      "inputs": [],
      "name": "minter",
      "outputs": [
        {
          "internalType": "address",
          "name": "",
          "type": "address"
        }
      ],
      "stateMutability": "view",
      "type": "function"
    },
    {
      "inputs": [],
      "name": "name",
      "outputs": [
        {
          "internalType": "string",
          "name": "",
          "type": "string"
        }
      ],
      "stateMutability": "view",
      "type": "function"
    },
    {
      "inputs": [],
      "name": "symbol",
      "outputs": [
        {
          "internalType": "string",
          "name": "",
          "type": "string"
        }
      ],
      "stateMutability": "view",
      "type": "function"
    },
    {
      "inputs": [],
      "name": "totalSupply",
      "outputs": [
        {
          "internalType": "uint256",
          "name": "",
          "type": "uint256"
        }
      ],
      "stateMutability": "view",
      "type": "function"
    },
    {
      "inputs": [
        {
          "internalType": "address",
          "name": "to",
          "type": "address"
        },
        {
          "internalType": "uint256",
          "name": "amount",
          "type": "uint256"
        }
      ],
      "name": "transfer",
      "outputs": [],
      "stateMutability": "nonpayable",
      "type": "function"
    }
  ],
  "bytecode": "0x60806040526040518060400160405280601181526020017f7265616c43686f7562657920546f6b656e0000000000000000000000000000008152506000908051906020019061004f92919061013c565b506040518060400160405280600381526020017f52435400000000000000000000000000000000000000000000000000000000008152506001908051906020019061009b92919061013c565b50620f42406003553480156100af57600080fd5b50600354600460003373ffffffffffffffffffffffffffffffffffffffff1673ffffffffffffffffffffffffffffffffffffffff1681526020019081526020016000208190555033600260006101000a81548173ffffffffffffffffffffffffffffffffffffffff021916908373ffffffffffffffffffffffffffffffffffffffff160217905550610240565b8280546101489061020e565b90600052602060002090601f01602090048101928261016a57600085556101b1565b82601f1061018357805160ff19168380011785556101b1565b828001600101855582156101b1579182015b828111156101b0578251825591602001919060010190610195565b5b5090506101be91906101c2565b5090565b5b808211156101db5760008160009055506001016101c3565b5090565b7f4e487b7100000000000000000000000000000000000000000000000000000000600052602260045260246000fd5b6000600282049050600182168061022657607f821691505b6020821081141561023a576102396101df565b5b50919050565b6108fe8061024f6000396000f3fe608060405234801561001057600080fd5b50600436106100885760003560e01c806340c10f191161005b57806340c10f191461011757806370a082311461013357806395d89b4114610163578063a9059cbb1461018157610088565b806306fdde031461008d57806307546172146100ab57806318160ddd146100c957806327e235e3146100e7575b600080fd5b61009561019d565b6040516100a291906105c6565b60405180910390f35b6100b361022b565b6040516100c09190610629565b60405180910390f35b6100d1610251565b6040516100de919061065d565b60405180910390f35b61010160048036038101906100fc91906106a9565b610257565b60405161010e919061065d565b60405180910390f35b610131600480360381019061012c9190610702565b61026f565b005b61014d600480360381019061014891906106a9565b610324565b60405161015a919061065d565b60405180910390f35b61016b61036d565b60405161017891906105c6565b60405180910390f35b61019b60048036038101906101969190610702565b6103fb565b005b600080546101aa90610771565b80601f01602080910402602001604051908101604052809291908181526020018280546101d690610771565b80156102235780601f106101f857610100808354040283529160200191610223565b820191906000526020600020905b81548152906001019060200180831161020657829003601f168201915b505050505081565b600260009054906101000a900473ffffffffffffffffffffffffffffffffffffffff1681565b60035481565b60046020528060005260406000206000915090505481565b600260009054906101000a900473ffffffffffffffffffffffffffffffffffffffff1673ffffffffffffffffffffffffffffffffffffffff163373ffffffffffffffffffffffffffffffffffffffff16146102c957610320565b80600460008473ffffffffffffffffffffffffffffffffffffffff1673ffffffffffffffffffffffffffffffffffffffff168152602001908152602001600020600082825461031891906107d2565b925050819055505b5050565b6000600460008373ffffffffffffffffffffffffffffffffffffffff1673ffffffffffffffffffffffffffffffffffffffff168152602001908152602001600020549050919050565b6001805461037a90610771565b80601f01602080910402602001604051908101604052809291908181526020018280546103a690610771565b80156103f35780601f106103c8576101008083540402835291602001916103f3565b820191906000526020600020905b8154815290600101906020018083116103d657829003601f168201915b505050505081565b80600460003373ffffffffffffffffffffffffffffffffffffffff1673ffffffffffffffffffffffffffffffffffffffff16815260200190815260200160002054101561047d576040517f08c379a000000000000000000000000000000000000000000000000000000000815260040161047490610874565b60405180910390fd5b80600460003373ffffffffffffffffffffffffffffffffffffffff1673ffffffffffffffffffffffffffffffffffffffff16815260200190815260200160002060008282546104cc9190610894565b9250508190555080600460008473ffffffffffffffffffffffffffffffffffffffff1673ffffffffffffffffffffffffffffffffffffffff168152602001908152602001600020600082825461052291906107d2565b925050819055505050565b600081519050919050565b600082825260208201905092915050565b60005b8381101561056757808201518184015260208101905061054c565b83811115610576576000848401525b50505050565b6000601f19601f8301169050919050565b60006105988261052d565b6105a28185610538565b93506105b2818560208601610549565b6105bb8161057c565b840191505092915050565b600060208201905081810360008301526105e0818461058d565b905092915050565b600073ffffffffffffffffffffffffffffffffffffffff82169050919050565b6000610613826105e8565b9050919050565b61062381610608565b82525050565b600060208201905061063e600083018461061a565b92915050565b6000819050919050565b61065781610644565b82525050565b6000602082019050610672600083018461064e565b92915050565b600080fd5b61068681610608565b811461069157600080fd5b50565b6000813590506106a38161067d565b92915050565b6000602082840312156106bf576106be610678565b5b60006106cd84828501610694565b91505092915050565b6106df81610644565b81146106ea57600080fd5b50565b6000813590506106fc816106d6565b92915050565b6000806040838503121561071957610718610678565b5b600061072785828601610694565b9250506020610738858286016106ed565b9150509250929050565b7f4e487b7100000000000000000000000000000000000000000000000000000000600052602260045260246000fd5b6000600282049050600182168061078957607f821691505b6020821081141561079d5761079c610742565b5b50919050565b7f4e487b7100000000000000000000000000000000000000000000000000000000600052601160045260246000fd5b60006107dd82610644565b91506107e883610644565b9250827fffffffffffffffffffffffffffffffffffffffffffffffffffffffffffffffff0382111561081d5761081c6107a3565b5b828201905092915050565b7f4e6f7420656e6f75676820746f6b656e73000000000000000000000000000000600082015250565b600061085e601183610538565b915061086982610828565b602082019050919050565b6000602082019050818103600083015261088d81610851565b9050919050565b600061089f82610644565b91506108aa83610644565b9250828210156108bd576108bc6107a3565b5b82820390509291505056fea2646970667358221220b7d86af2e618e5873eb66bcd13251bd05f24115f9de6e3f7c0055827e5f5767b64736f6c63430008090033",
  "linkReferences": {},
  "deployedLinkReferences": {}
}