{
  "_format": "hh-sol-artifact-1",
  "contractName": "yourToken",
  "sourceName": "contracts/minting.sol",
  "abi": [
    {
      "inputs": [],
      "stateMutability": "nonpayable",
      "type": "constructor"
    },
    {
      "anonymous": false,
      "inputs": [
        {
          "indexed": false,
          "internalType": "address",
          "name": "from",
          "type": "address"
        },
        {
          "indexed": false,
          "internalType": "address",
          "name": "to",
          "type": "address"
        },
        {
          "indexed": false,
          "internalType": "uint256",
          "name": "amount",
          "type": "uint256"
        }
      ],
      "name": "Sent",
      "type": "event"
    },
    {
      "inputs": [
        {
          "internalType": "address",
          "name": "",
          "type": "address"
        }
      ],
      "name": "balances",
      "outputs": [
        {
          "internalType": "uint256",
          "name": "",
          "type": "uint256"
        }
      ],
      "stateMutability": "view",
      "type": "function"
    },
    {
      "inputs": [
        {
          "internalType": "address",
          "name": "receiver",
          "type": "address"
        },
        {
          "internalType": "uint256",
          "name": "amount",
          "type": "uint256"
        }
      ],
      "name": "mint",
      "outputs": [],
      "stateMutability": "nonpayable",
      "type": "function"
    },
    {
      "inputs": [],
      "name": "minter",
      "outputs": [
        {
          "internalType": "address",
          "name": "",
          "type": "address"
        }
      ],
      "stateMutability": "view",
      "type": "function"
    },
    {
      "inputs": [],
      "name": "name",
      "outputs": [
        {
          "internalType": "string",
          "name": "",
          "type": "string"
        }
      ],
      "stateMutability": "view",
      "type": "function"
    },
    {
      "inputs": [
        {
          "internalType": "address",
          "name": "receiver",
          "type": "address"
        },
        {
          "internalType": "uint256",
          "name": "amount",
          "type": "uint256"
        }
      ],
      "name": "send",
      "outputs": [],
      "stateMutability": "nonpayable",
      "type": "function"
    },
    {
      "inputs": [],
      "name": "symbol",
      "outputs": [
        {
          "internalType": "string",
          "name": "",
          "type": "string"
        }
      ],
      "stateMutability": "view",
      "type": "function"
    },
    {
      "inputs": [],
      "name": "totalSupply",
      "outputs": [
        {
          "internalType": "uint256",
          "name": "",
          "type": "uint256"
        }
      ],
      "stateMutability": "view",
      "type": "function"
    }
  ],
  "bytecode": "0x60806040526040518060400160405280601181526020017f7265616c43686f7562657920546f6b656e0000000000000000000000000000008152506000908051906020019061004f92919061013c565b506040518060400160405280600381526020017f52435400000000000000000000000000000000000000000000000000000000008152506001908051906020019061009b92919061013c565b50620f42406003553480156100af57600080fd5b50600354600460003373ffffffffffffffffffffffffffffffffffffffff1673ffffffffffffffffffffffffffffffffffffffff1681526020019081526020016000208190555033600260006101000a81548173ffffffffffffffffffffffffffffffffffffffff021916908373ffffffffffffffffffffffffffffffffffffffff160217905550610240565b8280546101489061020e565b90600052602060002090601f01602090048101928261016a57600085556101b1565b82601f1061018357805160ff19168380011785556101b1565b828001600101855582156101b1579182015b828111156101b0578251825591602001919060010190610195565b5b5090506101be91906101c2565b5090565b5b808211156101db5760008160009055506001016101c3565b5090565b7f4e487b7100000000000000000000000000000000000000000000000000000000600052602260045260246000fd5b6000600282049050600182168061022657607f821691505b6020821081141561023a576102396101df565b5b50919050565b61084b8061024f6000396000f3fe608060405234801561001057600080fd5b506004361061007d5760003560e01c806327e235e31161005b57806327e235e3146100dc57806340c10f191461010c57806395d89b4114610128578063d0679d34146101465761007d565b806306fdde031461008257806307546172146100a057806318160ddd146100be575b600080fd5b61008a610162565b6040516100979190610548565b60405180910390f35b6100a86101f0565b6040516100b591906105ab565b60405180910390f35b6100c6610216565b6040516100d391906105df565b60405180910390f35b6100f660048036038101906100f1919061062b565b61021c565b60405161010391906105df565b60405180910390f35b61012660048036038101906101219190610684565b610234565b005b6101306102e9565b60405161013d9190610548565b60405180910390f35b610160600480360381019061015b9190610684565b610377565b005b6000805461016f906106f3565b80601f016020809104026020016040519081016040528092919081815260200182805461019b906106f3565b80156101e85780601f106101bd576101008083540402835291602001916101e8565b820191906000526020600020905b8154815290600101906020018083116101cb57829003601f168201915b505050505081565b600260009054906101000a900473ffffffffffffffffffffffffffffffffffffffff1681565b60035481565b60046020528060005260406000206000915090505481565b600260009054906101000a900473ffffffffffffffffffffffffffffffffffffffff1673ffffffffffffffffffffffffffffffffffffffff163373ffffffffffffffffffffffffffffffffffffffff161461028e576102e5565b80600460008473ffffffffffffffffffffffffffffffffffffffff1673ffffffffffffffffffffffffffffffffffffffff16815260200190815260200160002060008282546102dd9190610754565b925050819055505b5050565b600180546102f6906106f3565b80601f0160208091040260200160405190810160405280929190818152602001828054610322906106f3565b801561036f5780601f106103445761010080835404028352916020019161036f565b820191906000526020600020905b81548152906001019060200180831161035257829003601f168201915b505050505081565b80600460003373ffffffffffffffffffffffffffffffffffffffff1673ffffffffffffffffffffffffffffffffffffffff1681526020019081526020016000205410156103c3576104ab565b80600460003373ffffffffffffffffffffffffffffffffffffffff1673ffffffffffffffffffffffffffffffffffffffff168152602001908152602001600020600082825461041291906107aa565b9250508190555080600460008473ffffffffffffffffffffffffffffffffffffffff1673ffffffffffffffffffffffffffffffffffffffff16815260200190815260200160002060008282546104689190610754565b925050819055507f3990db2d31862302a685e8086b5755072a6e2b5b780af1ee81ece35ee3cd33453383836040516104a2939291906107de565b60405180910390a15b5050565b600081519050919050565b600082825260208201905092915050565b60005b838110156104e95780820151818401526020810190506104ce565b838111156104f8576000848401525b50505050565b6000601f19601f8301169050919050565b600061051a826104af565b61052481856104ba565b93506105348185602086016104cb565b61053d816104fe565b840191505092915050565b60006020820190508181036000830152610562818461050f565b905092915050565b600073ffffffffffffffffffffffffffffffffffffffff82169050919050565b60006105958261056a565b9050919050565b6105a58161058a565b82525050565b60006020820190506105c0600083018461059c565b92915050565b6000819050919050565b6105d9816105c6565b82525050565b60006020820190506105f460008301846105d0565b92915050565b600080fd5b6106088161058a565b811461061357600080fd5b50565b600081359050610625816105ff565b92915050565b600060208284031215610641576106406105fa565b5b600061064f84828501610616565b91505092915050565b610661816105c6565b811461066c57600080fd5b50565b60008135905061067e81610658565b92915050565b6000806040838503121561069b5761069a6105fa565b5b60006106a985828601610616565b92505060206106ba8582860161066f565b9150509250929050565b7f4e487b7100000000000000000000000000000000000000000000000000000000600052602260045260246000fd5b6000600282049050600182168061070b57607f821691505b6020821081141561071f5761071e6106c4565b5b50919050565b7f4e487b7100000000000000000000000000000000000000000000000000000000600052601160045260246000fd5b600061075f826105c6565b915061076a836105c6565b9250827fffffffffffffffffffffffffffffffffffffffffffffffffffffffffffffffff0382111561079f5761079e610725565b5b828201905092915050565b60006107b5826105c6565b91506107c0836105c6565b9250828210156107d3576107d2610725565b5b828203905092915050565b60006060820190506107f3600083018661059c565b610800602083018561059c565b61080d60408301846105d0565b94935050505056fea2646970667358221220c645a0725a5b0d4cf376d1c4da2b7b4bec52fdc40c1eaf140eb3c83454e63a3c64736f6c63430008090033",
  "linkReferences": {},
  "deployedLinkReferences": {}
}